:1000000019C028C027C026C025C024C023C022C0D4
:1000100021C020C01FC01EC01DC01CC01BC01AC0F4
:1000200019C018C07EC016C015C014C013C012C0BD
:1000300011C010C011241FBECFEFD4E0DEBFCDBF72
:1000400021E0A0E0B1E001C01D92AF30B207E1F7BE
:1000500016D174C1D5CF84B1876084B980E887B9DF
:100060008AB18C668AB98FE388B980E98BB9089523
:1000700084B5836A84BD85B5816085BDE0EBF0E021
:10008000808183628083E1EBF0E080818160808306
:100090000895E0E8F0E08081826A8083E1E8F0E0A2
:1000A00080818A6180838EE48093870080E28093E0
:1000B000860008951092C50081E08093C40080E915
:1000C0008093C1008EE08093C200089517BC18BCD5
:1000D0001092B40088EE93E09093050180930401A0
:1000E0009093090180930801089526B189B199B1CF
:1000F00090782F73922B8071880F880F892B8095B1
:1001000080930C01982F9F5F909307019F5F9093BE
:1001100006019F5F90930D019F5F90930E0190E009
:1001200008951F920F920FB60F9211242F933F93B1
:100130004F935F938F939F93F8949091C000409159
:10014000C60080910A01289894FF0FC08091C000DA
:100150008F7E8093C00081E090E0909303018093B4
:10016000020181E080930A017FC0813021F44111B6
:1001700078C082E023C0823021F580910201909105
:10018000030101979093030180930201892B09F0E9
:100190006AC021E030E03093030120930201809196
:1001A0000C01813051F427E0429FC00111248C5092
:1001B0009E4F909305018093040183E080930A0190
:1001C00052C0833009F04FC0809102019091030129
:1001D0000196909303018093020120910C0130E07D
:1001E0008217930751F457E0459F900111242C503A
:1001F0003E4F30930501209304012091070130E028
:100200008217930751F457E0459F900111242C5019
:100210003E4F30930901209308012091060130E000
:100220008217930709F447BD20910D0130E08091BA
:100230000201909103018217930709F448BD509180
:100240000E01252F30E08217930711F44093B4007C
:10025000852F90E020910201309103012817390782
:1002600010F010920A0178949F918F915F914F91B5
:100270003F912F910F900FBE0F901F901895EBDEBE
:10028000F7DE07DF17DF22DF10920A017894C0E063
:10029000D0E02BDF80930B01289ACC3281E0D80785
:1002A00008F44AC08091880090918900209104014F
:1002B000309105018217930748F48091880090914E
:1002C000890001969093890080938800809188002E
:1002D000909189002817390748F4809188009091FF
:1002E00089000197909389008093880080918A000B
:1002F00090918B002091080130910901821793079A
:1003000048F480918A0090918B00019690938B0025
:1003100080938A0080918A0090918B00281739077A
:1003200048F480918A0090918B00019790938B0004
:1003300080938A00C0E0D0E02196ABCFF894FFCF45
:00000001FF
